:100000000C94531F0C947B1F0C947B1F0C947B1F30
:100010000C947B1F0C947B1F0C947B1F0C947B1FF8
:100020000C947B1F0C947B1F0C947B1F0C947B1FE8
:100030000C947B1F0C947B1F0C947B1F0C947B1FD8
:100040000C94452C0C947B1F0C947B1F0C947B1FF1
:100050000C947B1F0C947B1F0C947B1F0C947B1FB8
:100060000C948F2C0C947B1F1C00040405050404C5
:1000700006101000000E000E00000F000002674086
:100080000FEA69C22450FE910A34A6C8090241123F
:100090004F25C3145AF058A20F5E101E2D3C2800A5
:1000A00042124F21C31A5CF460120F9E921D2C3A2B
:1000B0001000430FEA29C2248E9419148A04CA3FFF
:1000C00002441F1022C26550152132858A142A610C
:1000D0008823C4450F922046A4509922A5149A0261
:1000E00045201022C26550550933458E903941682C
:1000F0002D61C2650DA12073A4C89912A6149A029D
:10010000461F1022C26550958932478A9C2181C8BA
:100110006C616A17913843E4481913A5149A024791
:100120001F1022C26550559132858A102341F06814
:1001300061441C992854A4501942A4149A024811ED
:100140000A2EC2438CFE8D8A24878A0D0C04004936
:100150001350E1C2155CF460170F1E8478427AB820
:1001600050004A1350E1C22A7C3491170F1E84704C
:100170003C5A7828004B110A2EC2147058A123292A
:10018000D410A37F03004C0EEE64C3E0828D2A746A
:1001900026C90A034D14C775C2164AD01822251E57
:1001A00094305286D02861014E15C771C2104CD4CC
:1001B0002032454C3C285184CC2051C1004F0DEEDB
:1001C00024C32696A439546A583850142E25C321C6
:1001D0005004B144258A945185CE245961005110B0
:1001E000C96DC2268C50993A2A5557C44400520F03
:1001F000C96DC2218C543D2A5347C4840153142E27
:1002000025C32696A439546A8A9428948C84401174
:100210000054131022C246985EAA436996B4789897
:100220003E78200055131022C2F08178988A266B00
:10023000129D4AC2F40C00561CD0A1C21C1E80188C
:10024000172F840A111A1EC2A042848A78E1463C04
:1002500080C000571A90A1C22698EC687182C491A0
:1002600011C64C0C3941E2448F252C0C00581F104C
:1002700022C2C28891404102854B24CC883822E4B6
:10028000841813245C4241020571020059240F2294
:10029000C21C5CC4B85446C68C10346248B0B283E9
:1002A00089961C2224D098112248A52B2C3A0800AC
:1002B0005A189021C31A1E80F0D1045331E986D414
:1002C00020718204860A0F005B1CD0A1C260D45842
:1002D000187126442D4A21268998606184CB50905C
:1002E00040411C0100000004FFFF00005F0003020A
:1002F0000304030504070E00FE0AFE0BFE01830340
:10030000000465200500F2072107D1C3C72111228F
:100310000723DF47E2122313D5C24F298992645085
:100320004A493228A5244A120024135EBE5F3624AF
:100330005122258D63222552920C6104250F56C24D
:100340008F242592B486E964892C00260E56C29724
:1003500016F56692122D894C012706A1DFC71028D9
:100360000B6CBB5F548BB28E5958290CECBA4758B2
:100370000BB34E5954032A0BBDC657A5B2654B5358
:10038000042B0ABDC657581AA4B0042C0822BB87F8
:100390009228002D068DD2C7202E081BBF4FB224F5
:1003A000002F0E6EBA6F310DD3621AA6619A023019
:1003B0000D56C2971625A18F49944900310BD5C21D
:1003C000572625619F0601320D56C2CF9084621ACE
:1003D000A661E330330D56C2C7352CCEA92826437B
:1003E00002341056C267A825591275C992614C1380
:1003F00000350F56C2C7214D07254C53514C86047A
:10040000360E56C2D714A69545138DC99000370DE8
:1004100056C2C7354CC3344CC33404381156C2CF0E
:1004200090846212655A9484C6644800390E56C29C
:10043000CF90846ECA928A5A34013A0B43C34FB2AA
:10044000E448B224003B0942BFC7102A89023C0895
:10045000CDC267D6B5033D0826CEC71D1D063E0991
:10046000CDC247DAAD23003F0D56C2CF9084626BF8
:100470001D4C2300401256C2D794494312299112B1
:100480002991B4C44300410D56C2971625A1711895
:1004900044C700421256C2C7106549A82543942597
:1004A000A12D192200430D56C2CF9084D68E623200
:1004B0002400440D56C2C7106549E8B7648800455A
:1004C0000C56C2C721AD0E51DA3A0C460B56C2C7C4
:1004D00021AD0E51DA15470D56C2CF9084D6D210F9
:1004E000DA9425480B56C247E8380CA2C700490ADF
:1004F000D5C2C72085FD34084A0C56C2DF98F69253
:10050000255934014B1056C247A825512513932C69
:10051000AA25A1184C0956C247DA5F87014D0C562F
:10052000C247380DD1E2D163004E0E56C247286E45
:100530009B1249897614034F0C56C2CF9084FE98C3
:100540000C0900500C56C2C7A0848EC392B602514B
:100550001066BACF90841E87484A346548E300523B
:100560000E56C2C7A0848EC312D592500C530D569E
:10057000C2CF9084664731191200540A57C2C7216E
:100580008BFB1B00550A56C247E81F932101560CEE
:1005900056C247E89844BD892600570CD5C247E6A5
:1005A000974449942E00580E56C2472826519BA8BE
:1005B000452DA118590CD5C247664B4A49167602FB
:1005C0005A0C56C2C735AC86D5301D065B0A6CBBCB
:1005D000C7A0F5DF86005C0E6EBA471AA7715A4EA7
:1005E000E3344E035D0AECBAC790F5DF06015E09FD
:1005F0001EE297162561005F060EBAC70160061B52
:10060000E34756610D3EC2CF908469328C62320856
:10061000620D56C247DAB268A271531600630C3EEF
:10062000C2CF90846A63322400640B56C26FCBA29F
:100630008D6ECA12650E3EC2CF9084E230A8613240
:100640002400660C56C29F1655B3414BBB0167117F
:100650004EBACFA2255992455B982C61322400688E
:100660000B56C247DAB268A2C700690BD5C25798C9
:1006700023624F83006A0CE5BA671D113B6A5AB2C8
:10068000006B0E56C247DA9644956C8B6A49186C1B
:1006900009D5C28FD89F06016D0EBDC287D2A22494
:1006A0004AA2244AA2056E0A3EC247B268A2C70007
:1006B0006F0B3EC2CF90841E932101700D4EBA473E
:1006C000B268A27153963405710B4EBACFA28D6EEB
:1006D000CA9216720A3EC247B268A2DA0A730E3E86
:1006E000C2CF9084492C2761322400740C56C25723
:1006F0005A1BB4B453A60075093EC247E89BB20426
:10070000760CBDC247664B4A49164600770DBDC2FE
:10071000476649944449942E00780D3EC2472826E6
:1007200051A645492806790D4EBA47E84D59523130
:100730001912007A0A3EC2C7B1350C87017B0B6CD7
:10074000BB9792750AB38E027C07E9BBC787007D11
:100750000CECBA8798758CB22E12007E0B26DE4FF9
:1007600098445212260000000004FFFF000013000E
:10077000040405050303061010000010001000001B
:1007800025000001CA40251092F089266B54884844
:1007900041E2068D79F0400823464288081242441F
:1007A00090102282841011C4090041151092709992
:1007B000442848A020410FFE8179481EFC80004259
:1007C0001390D1307C201E92073F3022448990073D
:1007D0000F14431B109270124548441C21618484FD
:1007E0001519B568112355E89219B5290044100C64
:1007F0009A309133356490A472F2E01F1845280EA8
:10080000923092343764D42041A3C48C1A326AC81F
:100810000821534C2344C42021A5849010336AD06E
:100820009861078B01461910927089264C5A24232F
:10083000BE10F1E0810B11450AD1519142004716DB
:100840000F9670871E4A69419385050E1157B44A69
:100850009395920548190C9A70851549CE14223447
:100860004A543C58A2648D094164509901491B9037
:10087000D1B03062245090404102050914245090B8
:10088000402186183D7880004A25109230994437DF
:100890006894403103870815225488502142850C02
:1008A000142450D4A052AC4C14262D02004B0E0A36
:1008B0009A303C3846FFEC4110240E4C120C9670D6
:1008C000091566EAD49255A78C09955F014D20EE73
:1008D000B1B00D2569D09010230F82A8426384899E
:1008E000118A8810318262C808414204014E210EEB
:1008F000923085163C7668414B021D11726684A1C8
:100900001166D498186462CC112168829C004F0F44
:10091000CCD93091333564907CF2E01F185012101E
:1009200092307C40987EFCE00131C2245531015167
:1009300010EEB1B0285266D0562C9C0996CF0052CA
:100940000E0E92307C4AFFF4C111260F0A000000FF
:1009500004FFFF00001300060607070505084040D6
:10096000000040004000009E00000753409E4020D1
:1009700084C01E6137E4885B612B6AC6EC8821AFB6
:10098000A4A5B0945521285205A1381586A254205B
:100990008A71812C4485B200158CE253388A4E014D
:1009A000293685A4C816D20253500B4B69F901FFB2
:1009B0000F40203008FE410A824228A084213112D3
:1009C000100281200808814010048440200802425F
:1009D00020100401211008828010080441400804FE
:1009E000822020040241101002812008088140105A
:1009F0000484402008024220100401250C899180C3
:100A00001404855040F02F7225004141402084C0DD
:100A10009505D5949CD1237A42100806222004889B
:100A200080102002428008080122200488801020C3
:100A3000024280080801FD80FFFFFF0196C037F0E9
:100A40007EE09704FC1FF0FFFF800842384018C486
:100A5000C0812FF801FF071C7EE00FF901FFFF0F97
:100A6000C02008048520101482405008024121084B
:100A700004852010148240500802F901FF079C02EF
:100A80005F00004371402084C0288286B894D582DC
:100A90006A4ACEE8094160C4487C1005D141180477
:100AA000F7700E1BC441680FE8A03DA083F6800ECE
:100AB0001904426010088141200416711258C4497B
:100AC000601246814D940556311A17EA4A59AA6AAE
:100AD00045AD28D6C436B5A476D38A5A51AAEA843D
:100AE00081BE9027EA461C692B69A6EC846150EC14
:100AF000FF8702004431302086C014A27480928E99
:100B0000B25932CCA5A938D4C2584C0A45212598EF
:100B10008484701051C24940C88722FF7FC80FF8F3
:100B2000FFFF7F000645E4382084C024A26DA81092
:100B300093325A42CCA7E9361CC358680B25912D35
:100B400098C4B57010D6E241548B08312D2484B47A
:100B50009810D18242408B0AF12C2C84B3B010CE75
:100B6000E242348B2BC12CAE04B3B8140AE35228F2
:100B70008C22102D1246317816CAA228340B6551EA
:100B80001C9685B22812C94259148B63B1280A8673
:100B9000B1581405C3583009638949184B4DA25800
:100BA000180B0761288CC5833012C6E2411809630F
:100BB00001210C84B1881006A258480823312C2644
:100BC000C45129020EE2A014830681488A028340A0
:100BD00022C58141200E23B1201286B150104BC294
:100BE0006028098680309884C5681215E349500B47
:100BF000680131A485C3A01A88C30A5D208DD3691A
:100C00003E8C4831212CC20300465E402084C095B2
:100C10000157D48CD9213B62080C5DEC901D3383C5
:100C20006626C220F8FFCF2814302231F8845FF006
:100C300007FC1F60087E814F8011890166148A8A33
:100C4000518126CA0492301228E244A0881381A060
:100C5000FFA0881381224E0492301248C248200916
:100C60002381248C04020047633F6084C07AA01F64
:100C7000E8061C512FE625B911376007FC70A1B5B5
:100C80001256B24E568A4A49ABD0CB79412DE8254F
:100C9000ADB09217023B6406ADB013E481398C0B02
:100CA000C530369482F848086224098C1376B2560F
:100CB000D4EA4B2D6945AD4A2D6925B5A455A92522
:100CC000AD0EADA894F6412362004877B01F86C0F0
:100CD000D6802DAC8614712A4AC6E808219FA4A3A9
:100CE0007094CD92612E8DA5A9389347F244A04708
:100CF000E4881A12435A4C8A294121A84365A80A5C
:100D000016C136B80477818E58192904BDE494A021
:100D1000928E80483A4242D908092633241E0A910D
:100D2000802645028A188A2772281C08C26020493A
:100D300023812C0F22D2881E50E499381646A338FE
:100D400000496A4018C4C00A6B724530087E100220
:100D5000444008100121400484001110024440085E
:100D600010012140048400111002444008100121A8
:100D70004004840011100244400810012140048402
:100D80000011100244400810012140048400111099
:100D90000244400810012140048400110806827FAB
:100DA000D00FF81FE0097C034F00004AB1402084B7
:100DB000C0D72296AC1893337A405147DA4C1904C5
:100DC000815C0DA8513128C6C4B018924253440A20
:100DD0004EF1283C859300138D0254300931C12017
:100DE00048C49220130AC244280813A120CC0482CC
:100DF000381308024520081481205004824011084D
:100E00000245200814812050048240110802452424
:100E10000813A1204C848230114A824C2C0812C144
:100E200024C4049310114E024C380A4FF12838C6DE
:100E3000A3D01CCE0283380C6AE234208BF35034EA
:100E4000CEBC472EBA08964962542EC5426927AED9
:100E5000E48DC090D83137E8C57D20004B23282091
:100E600086C0C0FF800606FDFFFFFFFFB01FF00336
:100E700078C4C80821E0909031227EC00FA0014CB8
:100E800031366084C017C2457E1EA6CB709A6DA312
:100E900071B20EE6B93ED70B797FD7E7F2609D8C31
:100EA000A36D360D97E9301EC245FEFFFF7F170088
:100EB0004DA5B91E9CC0992156B40E15824ACE4943
:100EC00049212DA365BC84D83711148C42200E898A
:100ED0002539088AC3722802864131188183A010FF
:100EE0008E0027D808DA015B5890A9125D6216A916
:100EF00022351802CBC00818041360104C80413012
:100F00000106C10817E4425810CB024120110481A8
:100F1000441004124110480441201104813C124441
:100F2000B25010CA61412CC405C10418041360906A
:100F300018320A1A482398100C84412084C2B14008
:100F400016470152200B4E91243C8482000D8C6187
:100F50001C388309004EABB81F84C051E01ED40476
:100F6000BA6836C80738F12ADC45BB601B6B437D85
:100F7000A01034624ACA0959192BA225BC80982FA7
:100F8000E3699200A54906D126213C1BA5D07096A5
:100F900002C3590C0A8739249C2571701885C161D8
:100FA00016C5A659109BA631689CC6A0691E42A60C
:100FB00081081827125C1C4960712681A55139955A
:100FC00060E25802897309220E46803419E1D16823
:100FD0008686A3191ACD8660301C62C1740A05C3C7
:100FE00039124B07412C9DC4B07894C2D2610A4A91
:100FF000A721249D679070A440B2A10288C600007A
:101000004F30301CC6C014A27480928EB25932CCBC
:10101000A5A938D4C2584C0A45212598848470105B
:1010200051C24940C8FFFF87FC80FFFFFF076000F7
:10103000502E402084C0026FF0053FE07F80038681
:10104000FEFFFF7FF00FF81FE0087C034F83C0D046
:10105000AF3461AA8A35B924570483E010005135B2
:10106000B81F8CC049493A45A8270D424127A9A479
:101070006140ECFF57B91059411B6C822DF8013FBC
:1010800040852160E4FFFF2F36C88699400FEA8132
:101090001DE000522A382084C0812DF801FF032C66
:1010A00028F4FFFFFFFF437FC03FC040CC8C1802F5
:1010B0000F891933E207FC0104A12600000000009B
:1010C00004FFFF00000000000023002600290000AC
:1010D000000000240027002A00000000002500284E
:1010E000002B0004040404040404040202020202AB
:1010F00002030303030303010204081020408001DC
:10110000020408102001020408102000000008005A
:1011100002010000030407000000000000000011AD
:101120000006060707060508404000004000400092
:10113000004600000771404640188881011C82FF6C
:1011400010048A4010280241A00804812210048A59
:101150004010280241A00804812210048AFDFFA14A
:101160000804812210048A4010280241A00804814A
:101170002210048A40102802C1FF1000415540206F
:1011800008813944ED80252D65B5A49853537248E4
:10119000CEE811BD421008FE7D224FAC1B75248E97
:1011A000B499345386BA5496AA624DAE08F6C81A5A
:1011B000DA624B7087AEE011BCC127F8821FF00FD6
:1011C00020FCC01F0881A16287EC9819B502377412
:1011D00000428F4020088139C4ADB0956A06CD9891
:1011E0001DE460712884EA70408EC3A42820852203
:1011F000823D3247DE038360914B72492D6A624C17
:10120000280803A11ECE8372400EE9C98150102523
:1012100062450A8A45092A560A431F96B22A01C521
:10122000A210124B92402888F3901E920372500F26
:10123000E741411808353126146B7249AE0806C1E2
:101240001E9923EF81450B02422CA6C301390E15CE
:1012500041712804D2313368A65A612B6E0407000D
:10126000436FA01F1C8119C6C4A0181383624C0CC5
:101270008A313128C6C4A0181383624C0C8A3131DC
:1012800028CEC021380387E00C1C8233702806B5B5
:10129000A018D4A25A508B6A5129AA45A5B014951A
:1012A000C25258094B6125984FE01938C4A6D01C8A
:1012B00018E49258160A3369240F047A448E89413F
:1012C0002D2AC585C00E99612370834E700100449C
:1012D000683E5C88813DC14EC80DB66266C40E573B
:1012E000B252528BA91939A1C7136DA4CC64A92697
:1012F00056E472640B2DB119BA8117F80E9803FFEA
:10130000FF1C0804712010C48140100702411C0812
:1013100004712010C48140100702411C0804712090
:1013200010C48140100702411C0804712010C481C0
:1013300040100702410E004557BF1F08815F014F53
:10134000D00D38C256D00CD9113F7FB1E313448C75
:101350008F10293E4384F81091E15344848F110982
:101360003E070C71252C45B5A018534372440FF865
:10137000F9BEFF3FD0137644CEB8213565C6C49C74
:1013800017D4925654CA3A61256DC485BC00469E56
:10139000C01B788133812FD41378A2DDA01BE50810
:1013A0001CD9ADB0154C2055300194A10C4E86329D
:1013B00038190AA1742085D2811848C771201F06E8
:1013C00042841889105228C208B1F8100262607C69
:1013D000080131349A87801012C26C400433021124
:1013E000CC085EA13374C62350190F41A23090C6B9
:1013F000C7401A1F0361840A65112A9445A8501436
:101400002382498C08064122184479680EA5C1310F
:101410009806C770161E024A8008280122A0046898
:10142000A00A24812A9002AB400A7000478C382021
:10143000088131C49B7815EDA265B08CD5A13AD254
:10144000470A3923A7C4949414923256464B78091C
:101450003120E6D3789A6ED371B605A2D816C84269
:101460005B208B8C81303006C2B81A08E36A208D6D
:10147000CA81342A07E2A01C88637A200FE9813CE4
:10148000220802812008E48920902782441C55C349
:1014900062588B4B7125AF0476C48E0A52312A48AC
:1014A000A5B02016C28258860B62192EC825C0200E
:1014B000970083FC80FF033E486840200881D143A9
:1014C000BD9899E4E666C6DC909DE2E760A82B80B3
:1014D000412C0106A9061884226090A980412403AA
:1014E00006890ED92933696699293B616718EA4252
:1014F000779DB01366CA2E4462BBA0D7FFD202D13B
:10150000480BC642252089958020580272680988B8
:10151000C12D1806B8401862C7CCA815B8A106009E
:10152000491740188881011C82FFFF901FF0FFFFC0
:10153000010904FFFF21004AB12A600A819742692C
:10154000200F632254800CAFD139388816C9261772
:10155000C542048C0A21342604C1580405A268201F
:10156000040271300CC3804018044240288C4011A2
:101570002096CFC208240A6388200C03723090475B
:10158000C1581C04A369080C88112C264B35C122B4
:101590009A837B68928B525D2446C0801A02C37185
:1015A000108CE5513012C8C13022088390288C601D
:1015B000B25802C4C208100242610C860181300C8C
:1015C0000281381888A040140D0841302484D09836
:1015D0001001A3A258932B92413407D7E8189E021A
:1015E0004C8487D1401634004B9F4020088135063B
:1015F0004C513165470479A4CD84A92A4B11992E09
:10160000C823C22C8D27C3349C8CB36834CF62D9D5
:10161000400B651329128EA4383A53E2E85009A30F
:1016200043250A4F95203C1662F85809E16325844A
:10163000CF85103E1722005D290CFDEF4A049F0B59
:10164000217C2E84F0B112C2C74A0C1E0B4178AA2D
:1016500044D1A11246874A1C9C2981702445B28935
:1016600014CA065A2C9A67D1649C85936118106637
:10167000694417E431598A4895CA4C1BC903891C2F
:1016800013A352608606004C273820088181FFFF93
:10169000FF3F4015D806DA0F7C50C0FE01FF07C897
:1016A00088991143E021316346FC80FF03224D5E9F
:1016B00029E0098137C27800151D637364902B629D
:1016C000492AE9390422E21C048893E5380285039B
:1016D00009104E642838924AFAE71088887310205F
:1016E0004E96E308140E24403891A1E0482AE9AA56
:1016F000CA7489305106CA4018E932557EE0918D8E
:10170000EDA141B0A80C923DB68603004EA9382049
:10171000088131048CFCAF142488448011124442A7
:10172000A80C0802314C88032952180843F1300AEA
:1017300044C1681806C2602C0B04713014458248FD
:10174000941484A240120B62491C0906C1240A05A4
:1017500083601245A241340902E1200D0907E1240A
:1017600004C48324201E2401F120050808F14450FC
:10177000E88746CC4480301102C244080813212473
:10178000C8C480201144424C100A306124C084A196
:10179000F012888253240A4DA1302CC6C2A0184DE5
:1017A000036A3C10041299265225C23CDB06B49011
:1017B00012557101004F9240200881B5453CA904A3
:1017C00014261A441D870081968243420C8DC93825
:1017D0002C2902A144148890481E1006695496834F
:1017E00091518EC53631165EA45084902221420854
:1017F00045181914A16448849301115284045811A6
:1018000010A025487C9700F16102048EB8133702BE
:1018100047FEE1091C199EC011780247E049B7E272
:101820004EDC8A30502DBC41B5E00A142343500DE4
:101830004B413D2007155122950A3B69242F147610
:10184000CA4C4A81191A00505E3C200881AFC7A9D2
:10185000F144D8496239308566E0040B6409205AA6
:101860002468808D21612688837A28082EE108C8A3
:10187000811FF8172C5A8A8911391E68136DA0EE42
:10188000D32914C567800CE0C01A84811FF8BFD02B
:10189000402B62C6EB701D2D84855EEB701D2F23DF
:1018A00056D0860D0000000004FFFF00005F00041A
:1018B0000305050405061514FFFC0EFC0EFC029D35
:1018C00005D908B0200600603401210EC52934472F
:1018D000898C6E6214CBC800220AA5703E418293A7
:1018E00091002323CC296C4D442C644A442C64E49D
:1018F00080E28028264C442C26E880E28026444C56
:10190000624A620C0024224AAE6B2D50ECE4204463
:10191000222C244C226E50702E422C422C422A44FF
:101920008442C62E320C002527CE297C674CA44861
:1019300044264689A212B111E188C108BA08913043
:10194000891821919820991019A112B11900261F08
:10195000CC29748DCE4A464A464A44ACAA6C42868B
:10196000488448A28A6268E64088460200270882C6
:10197000B026E120002812472A3B4B2A95902A45A1
:1019800052FA4C4A2C0800291447223B294A4C4A57
:101990002C4C4A55944652425A85012A10E7EC4D88
:1019A000472A4622421B25312121002B128C256C0F
:1019B0004D54A5A8D4C1832951495165002C0BE48D
:1019C00024336393101522002D0845A835E16000EB
:1019D0002E07432834C1002F194D22535754365631
:1019E0005456543656543656545654365654160099
:1019F000301CCB296C8BEA664695849884181D9917
:101A0000849884988494C88CD0151500310FC535FE
:101A10006CE340264627323A9191013215CB296C6E
:101A2000A9EA20266852A17673820A0F440E440068
:101A30003316CA296CC7E8264850D91099DDA08A08
:101A4000289183102300341ACA296C6FD9984494C2
:101A50008490888C9AA018A190830333413919008F
:101A60003514CB2D6CE720E628526599E5A4265164
:101A700032475600361DCB2D6CABEA462A445052F5
:101A800082E6406468424C424C424A6466E68A0AF6
:101A9000003712CB2D6CE540E440706E1F0A0E0A31
:101AA0000E4A02381ECA2D6CA9E8644644484446D2
:101AB000666288E84666424A424A6266E2208808D0
:101AC00000391CCB296CA9EA66469584988498C491
:101AD0000CC9411085A4A048D0CC5515003A0B6420
:101AE0002934453DB48808003B0EE52533473D3297
:101AF0001935413141003C0F8D296C3974708E438A
:101B00005A4E6945003D10CDE46CE3A0E2A01EF6FC
:101B1000A0E2A002003E108D216C45969496433AB7
:101B20007683A3C1003F12C82D4CC3E420684C95B6
:101B3000D05662D2626200402AD0298CCDF0606A11
:101B40006C46A62444A6462246264828CD8CC84C7E
:101B5000448CC888440C45898CCCD054E041681D25
:101B600000411DCD2174519492504250424E444C3C
:101B7000664A4895D081CCC188DC8420A500421EED
:101B8000CB2964C7EA4648466844484691D1418C0F
:101B9000908C94889488CCC881C811004317CD29B3
:101BA00074CDEA40662C64725474545663B99883B9
:101BB000A92A004423CE297CE740EA60668A446E65
:101BC00044504450445042704250446E444E266C3F
:101BD000E660E8200C004516CB295CE720E620648F
:101BE0005052E5CD91A48607220722004614CB2946
:101BF0005CE720E620645052E5CD91A486929200E5
:101C0000471DCD2974CDEA40662C6472547454503B
:101C1000424E444E644C664AE660CA08004823CEF1
:101C2000297C474E464E444E464E464E464EE68032
:101C3000E480464E464E464E464E444E464E0600C4
:101C4000490EC5293447898C4E64742223034A12F5
:101C50004A2243519DA0EE047527A84EC8A80A0049
:101C60004B21CD296C476A464868464A464C444E4B
:101C7000429050624E444E644C664A48998CD80853
:101C8000004C10C9295C474E4C4EBB38DDC51D1CAD
:101C9000104D2BD0298C676E668C846C868A462208
:101CA0002A424642464226449FC4884888C88848FB
:101CB000C4C8C4D0C8042911925129034E28CE2982
:101CC0007C474E664C842C862C4642484642482629
:101CD00046898C4C8C90848C90844C184D1889D8F3
:101CE0008C9C0C004F1ECE2984ADEE406888646C3D
:101CF000625042B29294524270626C6668E840AEA2
:101D00000C00501BCB2964E7E8206448444A444A4D
:101D100044484666E420C64A52A1A4240051214EFC
:101D20002A83ADEE4068CDD8C4A084642529A5845B
:101D3000E0C4D8CCD0D0819CF1306DAD0400521FEE
:101D4000CB296CE7E8204468444A444A4448468D1D
:101D5000D5918C90CC8C908898849804005314CBA7
:101D6000255CABE820462A44722F95448D1C04194B
:101D7000015410CD2964E1832A59A5A3B29ACA6AF5
:101D8000085522CC2D74454C444C624C424C444C7A
:101D9000444C444C424E424C444C444C6448E64013
:101DA000C80A00561ECD2D74419250624E444C46D6
:101DB0004A484A48D58C98889C84A0842025A9202C
:101DC000005730D12D94416A8A6A48428848428837
:101DD0004644284246444642444626448D880A21C9
:101DE000911809A90819B28820B2A1B9A1392939D5
:101DF00000581FCF2164676C486A4C664E465242B9
:101E0000945878B6524450486C486A4C666E040048
:101E10005918CC2D64416E426A444A48464A44CC23
:101E20008E7052544B5141005A13CD2564E760E641
:101E30006072A93E9D9C3C203998015B1248263B6C
:101E4000898D9856629A856916174644045C144633
:101E50002E5341482A9590542A21A9544252A984CC
:101E6000045D1248223B89595C986661BA12D38698
:101E70008808005E198CA56C315472A184D88498AE
:101E80004C9490CC90C858885C84A0005F0848A40B
:101E900053E18100600964F85E61444600611C6B97
:101EA0002964CBE62064484448444A446842884256
:101EB000A642A4C44266460400621FCB296447526E
:101EC00032526646C2A444844682486248444A4428
:101ED000482668E420C60A006311692954A9C6642B
:101EE0004A4E4C4EAB10231A00641CCC296455A5F5
:101EF00098D5911AA1112919A11121129912911A9B
:101F00000BA1191900651669295C89C84446422845
:101F10002448C2864A6C48E486060066148A264332
:101F20008DAA484E50ECE62A5087813A0C54086737
:101F300021EB2563CBE8664664284648444A44685A
:101F400044264244454C85D088A44894CC5515007D
:101F50006820CA296447504E506446A2A442844473
:101F60008246622864464448244A424A4268020043
:101F7000690EC52934479D8C12199DC8A8016A13A2
:101F80004A1E3B513D88A07682DACD09AA13AA22C7
:101F9000036B1ECA296447504E506644644662284B
:101FA0006248428A4C424A4428469188D004006CD8
:101FB0000EC52934474D8C4E64B48951036D25718B
:101FC000299C45668D44490B8909899212091A1A80
:101FD00089A119912125424312435212522AA48405
:101FE00044006E1E6A2964456446A2246242A244EB
:101FF0008246622864464448424A424A4268020095
:102000006F176A295C89CA4666424A428A8C4A42EC
:102010004A4248C68A0800701DEB2563476446C2E1
:10202000A4448446644864469188908CCCCC5199F1
:10203000A0A44A00711FEB2963CBE6206448444802
:10204000444A4468428842A642A4C442664652A119
:10205000A40C00721469295445464482A44642885F
:102060006A4C4E4C4E1D00731268295487C6442694
:10207000446C338920899312007411A62D4445487D
:10208000E4A04248474142342300751E6A29646334
:1020900048424A424A424844664268428642A44212
:1020A0006222A4426644040076196A2D5C418C4A7F
:1020B000422A44482646284648424A228C6C6E0CE6
:1020C0000077226F298441688868464286464286A6
:1020D000440B112D1445884808458850CD50CD8CAF
:1020E000094D0178196C215C474A46484A444C42E4
:1020F0007052924E424C46488D980800791CEB294C
:102100005B434C424A44684448466648444A42ACB1
:102110008C6E7050525025007A106A255CE520E4E0
:10212000204EBF3B903890007B16472A3B6986467D
:102130004A2329992131B1284552524442007C1248
:1021400045262B479BA0186D8262B4098AD10600F0
:102150007D1447223B298A4A2A4A5598A2192129E7
:10216000DDD00C017E0E8C246D652CC286C6226CDF
:10217000040000000004FFFF0000600003030405EA
:102180000406060F1700FC10FC1000020B040106E9
:10219000022006001054012108021534F1A1442246
:1021A0000934B65521998802231E08135427114D6E
:1021B0004492916424911C0E928948E57090A8493C
:1021C0006412D144A404241448D3532796D22CA3D8
:1021D00022799F89A5898D2A9601251808135423F1
:1021E000B348282255B1AA582A5615A94822129B4D
:1021F00004002617081354372CC9243289783A244E
:102200004A641209C9CD343919270732B43551014E
:1022100028100417541593885444FA26128D22006E
:102220002910041754139289D444FA22928C420044
:102230002A12787255278C48228710E91089488223
:1022400032002B0C66745425141D4A4211002C07D1
:1022500032F43341092D0726B45471282E06221476
:1022600034412F140813542D9D8AA553B154AC2A20
:10227000964EC5D22900300F08135445B38C8AFC02
:10228000C7D2C44602310B041754253A5044FA1FF2
:10229000321408135445B38C8A6C53E9702A9DAAF2
:1022A0004E0F07013312081354F1209DAAAE92C7B6
:1022B0009A4B131B0900341208135427156B156B26
:1022C00011E9743808C54A003513081354F1405613
:1022D000365D4645B132B134B1910036140813541D
:1022E00045B38C8A64B1E9322A722C4D6C240037D4
:1022F00013081354F140A44DC5AA53B174552C9D35
:102300000A01381508135445B38C8A8CA589C93243
:102310002A329626361200391408135445B38C8A93
:102320001C4B9393594C2C4D6C24003A0892543416
:102330004187113B09A23434418751023C0D957607
:102340005C19932C05674361003D0967545CF18E6D
:10235000F0003E0E95765C1114CE86A1C952100095
:102360003F1208135445B38C8A62E970AAAC3B82D1
:102370005806402A3E938369071CA2C3D91C201922
:1023800095482692124989A4445222299194484A98
:10239000A483E9109A43E7D083F81002411308138D
:1023A0005427160F7994C824229D4C17199128425E
:1023B0001408135451BBC824426E12D34556E42668
:1023C000B9D400431008135445B38C8A64FDB1346A
:1023D000B19100440F08135461BAC88AFC6F878911
:1023E0000900450F081354F140D6D96412EB7C382C
:1023F00008460E081354F140D6D96412EB33004757
:102400001108135445B38C8A649D1C194B93930196
:10241000480D08135421E4C7C3C1C88F02490802FC
:102420001534F103014A0D081354ADFF99589AD899
:1024300048004B1A08135421AB494413918AAC4607
:102440009C4E8935894CA434914964034C0B081384
:102450005421D6FFF3E1204D13081354212C391DCC
:102460007E904828128A84C8A3004E130813542172
:10247000ACB5994C178A8422A19CDC3A0A4F0F080C
:10248000135445B38C8AFCC7D2C4460250110813BA
:102490005451BBC82442DE24979A58CF00510E08ED
:1024A000135445B38C8AFCC7D2E464521508135404
:1024B00051BBC82442DE241793DE2432894C2214F7
:1024C000531108135445B38C8AE47D2696263612A0
:1024D00000540C081354F12013EBFF0D00550D08A8
:1024E000135421E4FFB134B191005617081354215D
:1024F000244A64129944A437894C22AB11A95B6524
:1025000000571107155C21E34B8412A14428875F13
:102510005C0658150813542194C824226D12598D55
:10252000C8B13411E98D285917081354219488260D
:10253000225D6644E2742C154BA762E914005A151B
:10254000081354F120968AA562A9582A968AA5E212
:10255000C341005B0B05175471A8E97F3B0C5C116C
:102560000715542155964AA7AA53D5A9EA54005DE8
:102570000B0515547198E97F3B145E0936145625F6
:10258000A388045F071AF0537118600833F85521C7
:1025900011096116C9125C37AD29C9E40099E92215
:1025A00094082542D1214411621108135421D66C9C
:1025B000BA8C8A7C2C1D2626006310C8125445B3A1
:1025C0008C8A641D4B131B0900640F081354AD93D0
:1025D000E5302AF2B13439196512C8125445B38C6A
:1025E0008AC4C3C12C1E4D6C2400660F08135447C7
:1025F000336956BCDCC4FA11006716089353653979
:102600008C8AC4D2C454138B2D8721F130B1006859
:102610000E08135421D66CBA8C8AFCA300690D03F2
:10262000133421910324FA9789006A0F469553A920
:102630008E24D4FF483A4428006B1808135421D63E
:10264000AD26114D442A3289AC6D229A4C6412D9C0
:10265000006C0B04133421D2FF1365006D1BCE12E6
:102660008461221D2C235251481412854421514863
:10267000141285442151016E0CC8125461BA8C8A1F
:10268000FCA3006F0FC8125445B38C8A7C2C4D6C90
:102690002400701108935361BA8C8A7C2C1D262665
:1026A000B16600710F08935365398C8A7C2C4D4EAE
:1026B000661D720BC61244F11021EA8F007310C719
:1026C000124C35ABC89889641A4D521B01740E0523
:1026D000133C23D37498C8F41B6900750CC81254BA
:1026E00021E41F4B9393017613C8125421244A64AA
:1026F00012D144A43789AC4664027720CE128421DB
:1027000014126712D94C22A249442425925245261C
:10271000D14692C84844129144027814C8125421F8
:102720009488262219912A961269222D4201791B3A
:102730000893532393C824329164249149641299D5
:1027400044489C6E8B8C8A43007A11C81254F12045
:102750001D4EA5C3A974383D1C047B1026D55329F2
:102760001B09751BCD8643BD0E057C0842D953F16C
:1027700087027D1026D553215CD4EB6C24D46D34B4
:1027800013027E0929D25471081D027F06001054DD
:102790000100000004FFFF00001400060607070602
:1027A00005084040000040004000005100000A873A
:1027B0004051A01F1C811944E580240D65B1249867
:1027C00043537008CEE011BC821FF00F20041EC1DD
:1027D0006BE0109C42736012CB42692490A342FCD0
:1027E000C06E024280A0FF3FE8201C200361800AE7
:1027F000460122200468A00C20012380024E000123
:10280000004125A01F1C8181FFFFFF0F38091D62B9
:102810006364908B5261264E047A480D6A6125B03C
:102820008356E0065E00424D3F188881834A7A4114
:102830002F28E6CC9819536366EA57E44E624D6C34
:1028400094AA52B35017DA75CACCB2D2468E137519
:10285000220F047A7EE04F245004D12019400484D2
:10286000F81010E24340880F0121408364100914DE
:1028700021010043844020088141040D7129AB05EA
:10288000D5949CD11382BED027EA481C693369A62F
:10289000ECAC6245AF27E6C89A19435B6A8A4D09DA
:1028A00009142444540C9051293E4865F82815C158
:1028B000C350848E430938D024D848924043ADACED
:1028C0001406092CDA23A83482C611501A42D310F8
:1028D000248DA15984885B513366470C79252D6579
:1028E000B5A498535372464F08FA441D6933A5089E
:1028F0001C79B961276800448A3F2008810104825D
:10290000B91008E64220980B81602E0482B91008A5
:10291000E64220980B81602E047287B80204D2121E
:1029200010086B40202B0281A80A0492321008EA9A
:102930004020270481981204525210086941202334
:102940000681881A0412721008E841202107818844
:102950001A04326210086941202505819812047218
:10296000421018E64060190381690A04B621101864
:102970006740601D018179020476BA91FFFFDF0D87
:102980000045D540200881214465E810912343404B
:10299000100CE1502C4463A9100C86422C9A09A11A
:1029A000701448C230160A0459288A0482289844B0
:1029B0000239140E228120882781409043844020D0
:1029C0004941422090254021706477E246DC095B52
:1029D000410540C554E816D2615B48086D2125B217
:1029E00085A4C016D2E25A488B6B212DAE85B4B8AF
:1029F00016D2E25A488B6B212DAE85B4C014D22278
:102A00004B480B0D312938C3A4F00854C24EDC08E2
:102A10001C712370649440812008A9904010447474
:102A2000402009E2491C9004E1280E4892601408F5
:102A30004449280B04A22C0C460259360A62D22CB7
:102A4000080AC3202A4B83B0280E02834088CC1189
:102A5000213804858000466D3E5F188179814EC023
:102A60000BF7A146D00A7911375E870B6123EB245F
:102A7000A5A016F35266468DC8013BDFA70371225D
:102A80006D94952E9385A252D32A62412EE705B903
:102A900026D575D2461E28E49419B4A25256092BA5
:102AA00061232EC47DBC0FB8113762C6BC9815B423
:102AB000A246D808FB801BF0425ED007FB6017F4EB
:102AC000010F00478DB01F1A8127C508E92C19C6D0
:102AD000E24C9E08F4881A07E258180E2359480B56
:102AE0004441290E85A52814988248680902C1210D
:102AF00086049710101E4240788820E14540E80780
:102B00002202848710101E4240780821C125060445
:102B10008720125AA24860094361290E05A5401674
:102B2000D22261380CE5813C1612436A448EE801DA
:102B3000451EC933712ACD85C1309965A374920FA2
:102B4000024242C7C82815272235AC8456700100BE
:102B500048BD402008810104EE90256E65C5A01A8D
:102B600093437A441018FA465D693369A70C85A926
:102B70003A52081A3D25C7DC9C1A34935E1E4375F1
:102B8000711692A571401606F25816895359284DB0
:102B900045B13014E5C25092CC424134CB04D92C1B
:102BA0009383B3488E8E32313C8AC4F828920294C3
:102BB00048948D12693289E4B92491A89248A24AB6
:102BC0001291284964A224916992440482334122DB
:102BD000C28191241021B1489048A058224824581D
:102BE0002891041230940802091A490481040E2421
:102BF000824002470241400824F92011E49340102A
:102C00001002414008040121100484400149863823
:102C10001C888145C26C881130E24D72136FC25519
:102C2000B80957A95DB48A76C132AD0C96B136A900
:102C30008E14624E2404621210C8294020F021A78D
:102C400000819C0204720A10C82940202601819844
:102C5000040462121048694020A5018194060442D0
:102C60002210088940202402818C0A04322A10C8CC
:102C7000A84020220381880C04123A1048E8402022
:102C8000A10381801004024210080841209F0481A2
:102C90007814004ADA4020088135064C51316547E6
:102CA0000479A4CD84A9AA8812991ED0236A588DCC
:102CB000A791319C05B768165C6359700F45C141F7
:102CC0001205273914DCE448708B206124B6C580D6
:102CD0002812DB824810886D61208684B638124243
:102CE000225B200901912D148480C0160B22485CC0
:102CF0000B26722D1C88B57820D50282508B0832A5
:102D00002D2488B49820D18282408B0AF22C2C8802
:102D1000B3B822CCE24A04886581210484B2C81089
:102D2000420259640921712CB4C48030161B8248B8
:102D3000108B2D512086C5963012C1824B1C132E4C
:102D40008148384502E114CA835B2C0D6ED12CB842
:102D500085C3C81850C36A440FE83145944895CAE2
:102D60004C1BC903891C13A352608606004B3D40CF
:102D700020088105DEE00B7EC0FF0008C1E026864A
:102D8000C28B2008108220400882002108028C1883
:102D90000A6F4230B81FF0FF000D0CFDFFFFFFE08F
:102DA0001FF03FC011F8069E00004C88C01F18811C
:102DB00041040D7129AB05D5949CD11382BED02757
:102DC000EA481C693369A6ECAC6245AF27E6C89AAD
:102DD00019435B6A8A4DF91812A4C3440C8E132957
:102DE000365064D84811414341848C050932162479
:102DF000C824840412601243824210080A412090C1
:102E0000E0822010487041100824B820080422589D
:102E10001004F2081138F26B3D23A7D49C98D4B269
:102E2000525AC90B891D33A356DC88DCB0137AC112
:102E300006004D70402008810148F4925C538B627B
:102E4000552B4B75A53050F8113D6387E41A3BA212
:102E500027FC80A02FE489BA11F71026DB83906845
:102E60000F23923D1008F6501ED78371580FA751BB
:102E70003D2006F59016D38352480F2B113D304468
:102E8000E4C8101243434C8A0D4121384465E810D0
:102E900016C1435C820F8123FF60E807FF80FF07B4
:102EA00040004EBE4020088135064C5131A5270414
:102EB00079A4CD84A92A0922991E0F24724092A7D1
:102EC00011511C074469208E659138164502511234
:102ED000C9343924956150180D8D60240C86364014
:102EE0001245231B2809A2911114C4A0100459A251
:102EF00048080A2F3128048597101682C2B3040BA4
:102F00004FD491B632ED848D84C145220416A908B0
:102F100054A5ADC495364E80D8364262D3088E2B68
:102F20002340AECB10D92084E45B14922F6148BEBD
:102F30008431E91487A44B24922DA14834C522C1C1
:102F4000144DC45A38918AF140A646F4881C534463
:102F500089542ACCB4913C50E829312A056668008E
:102F60004FA0402008815B83DD90212E65B5A49899
:102F700053636A4C85B128118AA234300993E0204A
:102F8000F0048E7CD9624A5C8F08614D9C045569BF
:102F900014D365514C184531619485944916120338
:102FA00029240B69712DA4C5B59016D7425A5C0B24
:102FB00069712DA4C5B59016D7425A5C0B69A11052
:102FC0001086B4501082435A289849B15C26056394
:102FD000A1124D854A3C120B11412EC4B4C81059A0
:102FE000C043E0C8E5081CE110CC046330130AA21A
:102FF0005C180A53EBC4A49695E24264C66D68015E
:1030000050834020088181FF0F80C0D05F64C820BA
:103010000EC382348E0AC24028C82299200A4582F3
:10302000249608925822489220121104491809083F
:10303000822041100409822048100441822048C2A5
:1030400048409024412422486289208925822814FE
:1030500009A25024C82299200C848230100AD23848
:103060002A88C3403C0EE3F83C8A030421105064D4
:1030700048401241014D02E6237A60E807FF80FFD5
:1030800007400051D3402008819143DE9823EFA4EC
:10309000B5A818546372D68B3B812531447ECC0E83
:1030A000DA41373243D5C01612E372400C0BF22CD2
:1030B0002C89B3A828CD82B2308BE9C22CB0C9A22A
:1030C000E0208BA27B2C8AAFB124C086A208194ACB
:1030D000426428897191249C42A450120DE251242B
:1030E0008966D1289204C368124982712C8A04C16E
:1030F0003C96449258204B22412C112591241C8748
:1031000092401211434124886991241004A5481269
:10311000488252244895024920082B912010C485EA
:10312000481008C2302C0904895028080491200452
:10313000468284200207924090024782401008068F
:103140004142300812824190100C0C153B64C7CCF0
:10315000A815B8A106005285381C88810104E251E7
:1031600010C827412020048180100402421048E842
:103170004020A10381880C0422321088C84020A37B
:1031800002818C0A04322A1008894020240281908E
:103190000804521A1048694020A50181980404626D
:1031A000121088494020A700819C0204720A10C8AE
:1031B000294020F021A7008198AAC909491D6B1355
:1031C000CBD4325846BB7015EEC2557A15AEE24DDF
:1031D00082136F02468A0D33410200535A401C8805
:1031E00081E1C00F0004FEA02FEC06FD90276E8544
:1031F000B12B7A834FF805BFC027F4865DADB013BD
:10320000F72137E8857DD00BFCC00FFC99015FD01A
:103210000FF6826EC80F77C256D4BBA127F8823F43
:10322000C137F48A9DA1B813F94137EC857EE00BD4
:103230007E0010800100000004FFFF00005F00041A
:10324000030505030606171B00FA10FA11FB02E935
:1032500006740908200600B03E012110241A4443D8
:10326000E2E00B11CD240E2224002213C9745D4329
:103270004682E22082424644464446020023272DED
:10328000126C67646A646A646A646A64E6A064D5FE
:10329000C8D4C8D4C8D4C8CC41C9AA91A991A9910D
:1032A000A99121002427ABB66B4B52EE20E440627B
:1032B00042628588C4848884599D5D59D9418C4473
:1032C0008D8489C445C5819CA4220025343316AC65
:1032D000A76AC5C1D08C08D190C8D490C8D48CC876
:1032E000D888C860CD3CC03CC04CE1C8C4D8C88CAC
:1032F000D4C890D4C890D0CC8CD012A9A91A0026DA
:10330000273216A48DDA766474467464D6B889CDF3
:103310004108CD1AA1153353466345735453161211
:10332000151436461400270CC4783D43E22042446D
:1033300005002814C7764B4B48D190D09AA1FD6A5E
:10334000684A6A4A4C012915C7764B414CD594D43A
:10335000D0D4D0FE666848684811002A1228354D3E
:10336000478AE4E04084E4E040844A06002B0E4BA8
:10337000597C6970A3830741831B012C0DE4B83B82
:1033800043E22062448504002D0747D44CE1012E1E
:103390000B84183C43E2204202002F1248F2436B98
:1033A000A3A945538BA6164D2D9A5A0530170B1617
:1033B0006CA76A6266C9CCC4947F35313332B3627C
:1033C000AA0600310E071E6C476886A468FF4DC52B
:1033D0000132190B166CA7EA6684446870BBC1B948
:1033E000858A4484260E240E260033180B166CA7FB
:1033F000EA668470DD5821E1E4E0BA83108A032193
:103400001B00341B0C166C8D90AECC6A624A64684B
:103410006466C9D0C8D0C8C183B9C94D0035180B7E
:10342000166CE520E6485052F2E8408E9070C39B3F
:10343000890A1A1B0036170B166C6DDD867307316F
:10344000156C26A6BC9A9819A120AA0137190B164B
:103450006CE360E2406268426A6E705070DDE0BA10
:10346000C1B9C1310038200B166CC56864D1C4D015
:1034700004CD08C9CCD1CD81880CC5D095D5C4CC9C
:103480000805510D0039190B166CA7888264666215
:10349000CAAB89190A8A9A83B8C1B9CDC6003A0F56
:1034A00064194443E220425CE2204202003B11C422
:1034B000B94343E220425CE22062448504003C12AE
:1034C000AC357C738E191D191D2529252925E90088
:1034D0003D0CED947CE1837A94070F0A3E14AC39DD
:1034E0007C619492949294928E8C8E8C8E6E12004B
:1034F0003F1B2A1664C5668262E620E42084426689
:103500006E6C9DA07A1839323A2100403236B6C32B
:10351000EF20988890D5F0CC90D1C8CC08C9C4CC05
:10352000D08CC9D48CC9D090C9D0CCC4CC4805C9E2
:10353000CC41D13CD43C143D14D1F42100412211A2
:1035400016946F7CBAB8766254645464726650689C
:103550005068EE804C6C6A6E48704870C4E8004257
:10356000260F168CE1A06AD1D8CCD8CCD8CCD8CC38
:10357000D4D001D114CDD8CCDCC8DCC8DCC8D8CCC0
:1035800014C5410D00431A0E1684CB4286A4646C08
:10359000625062B0768F670745C68448E68A004469
:1035A00027101694E1806E886A6C686E666E66708D
:1035B00064706470647064706470646E666E666C6F
:1035C0006888E6800A00451F0D167CE1A0666866E3
:1035D0004A66748DD48CD441D48CD48CD4E86622C1
:1035E0005307071100461B0C1674E1A06468644A77
:1035F00064728DD08CD041D08CD08CD0E4EEAE00F3
:103600004721111694CB428C866A6C6850685066CC
:103610007CBB83C991C999C199C1A139319A4933F8
:10362000004825101694E1E4646C686C686C686C62
:10363000686C686CE8A0686C686C686C686C686C36
:10364000686C686CE401490B07164CE16468FF4F35
:103650000E4A1009165CE5686CFF93899189991AE6
:10366000004B23111694E1C4686A6C686E6670643E
:103670007262F429C5E4CCE0CCE0D0DCD4D8D4D854
:103680009A9383004C110D167CE1206E74FF672223
:1036900053070711004D341416B4C1D08490A88E7E
:1036A000A8ACA8AC4862AA4862C8486446624864AC
:1036B00046624864C590CC84C8908CC99010CD9067
:1036C00010CD9010CD888D8C014E2C101694A1CA6F
:1036D000644E884CA84AA84A486248C98C90C88C55
:1036E00090CC8890D08490D0849054911891189167
:1036F000DC889908004F1C101694CB90846A6C6685
:1037000070647062D44F2706470667C6A64808ADA6
:1037100000501C0D167CE1606A866668666A646A01
:10372000646A64686686E6206A740FCF00511F7071
:10373000B693CB90846A6C6670647062D44F27062F
:10374000470667C6A648086D8BAB2D0052211016A0
:103750008CE1806E886AB3A1B1A1B1A1A9455407DB
:103760007233733364436343545B911C15531C0CD5
:103770001674E5406486626A624C824A84D0434A89
:10378000BB3AAB091A8A03190054130F168CE101D6
:10379000CD4CD110D190D8F0FED323005526101671
:1037A00094E1C6644E684E684E684E684E684E6836
:1037B0004E684E684E684E684E684E6A4A8C66D0B7
:1037C0000A005623121294E1E8629068506A506C25
:1037D0004C6E4C70487248744674447842B89C3DB4
:1037E000803C84200057331712BCC1E2E04082883D
:1037F000D1D494D42AA95562333572333572333516
:10380000821322139213221392132213A244B4445C
:10381000C443C462D2627200582411169CE120C4D1
:10382000864C6C4A70487244B67A9C9A58625466C8
:103830005266506A4C6E886CE420E40059251312DD
:103840009CE120E884708A6C6E4C906892647644A7
:10385000F8BA1E601E621E621E621E621E62FC0CB0
:10386000005A1C0E1684E3C0628A446C94927494CD
:10387000927494927494924E62EEE060005B0EC675
:103880007A4BE1606466FFFF86C4005C1228124434
:10389000616AD9D4B2A96553CBA6964D0D5D0DC60C
:1038A000764BC18466FFFFC9C1005E0DAA946549CD
:1038B0008ECA66646268005F084D906BE1830260A7
:1038C0000965D84D6166480061186B1564C5686468
:1038D000666470ACE86664CDC8C8C1C144C5040064
:1038E000621D2B1664458E70870731248B26862631
:1038F0008626862686268626864616D50063116A83
:10390000155CC7646642C86E8743226B2C00641F37
:103910002B1664518E70370721231443134313432E
:103920001343134313431343232325270065156AC9
:10393000155CC5666462C8E8E0406EE1CC04C55021
:103940000900661127164485C4C262688DC9D0FE7D
:10395000C6020067222D526BA76E8268A664666855
:103960006668666A62CC6C94F4204C8664EACEEE9B
:103970006AE4200800681C2B1664458E702F680EC0
:103980004448D68CCC8CCC8CCC8CCC8CCC8CCC4C79
:1039900034690D25163463641E5082647F516A12A7
:1039A000C6723365661E5C8466FFCDC141040500A6
:1039B0006B192C166C4590722F6A46A426C4EADA5D
:1039C000994D4C8D0CCD8C54186C0B2516344582BA
:1039D00064FF5F146D1D711594458284E4E040849A
:1039E000C99A25334B6696CC2C995932B3646645F7
:1039F000076E1A6B15644582E4608464CDC8CCC838
:103A0000CCC8CCC8CCC8CCC8CC44036F126B1564EE
:103A1000896A6266C594AF2666564C1101701D0B0B
:103A20007663E5A464D1C4D0C4D0C4D0C4D0C4D01B
:103A3000C4D004C9C8D1E0766500711E0B7663E579
:103A40002064846268626862686268626862686250
:103A5000686484E620707705720C68154CE5E062B6
:103A60006A3FAA017313691554C564628D04593302
:103A7000239B8B09091200740FE6153C45486689A3
:103A8000C5CC7E533201751D6B15648184646664F8
:103A900066646664666466646664666484E640665A
:103AA00042040076196C1164A186624A644A664633
:103AB00068466A426C428E9052540A007723721113
:103AC00094A1A28662664A64664A668DD0CC8CD484
:103AD0004485D844851C092109A590A89014007834
:103AE000156B156CA1A262466842CA8C7090AC4AF4
:103AF00064664503791E0C7673A186624A644A6641
:103B00004668466A426C428E905254525452AE8E6F
:103B100010007A146A1564E340426644646E6CDDFA
:103B2000D82289A183027B10C67E5B4964CDFE64E6
:103B300068663F9292007C08231A3CE13F107D109A
:103B4000C57E5B414866647F3331B29FA8017E0C1D
:103B50008BB46D8546C20B19120000000004FFFFF4
:103B60000000050006060707010508404000004068
:103B700000400000690000032240693E590B3C07E9
:103B8000F8815EC00F76825EC80DF8E146D8895A8A
:103B9000412DE7C5BCE604AE8B33A82E4E61BA3882
:103BA00087E8E2249E8BB3682E4E63B9388FE4E237
:103BB000448E8B33292E4E65B83897E002B5A41594
:103BC00095B24E58491B7121EF0376C40D99312FE0
:103BD00068459DB011F70137E4059DB00F78411F8E
:103BE00094004198406008AC31608A8A293D21C820
:103BF000236D264C55B12657047B648EACA12D361F
:103C00004525281215A1385486C248210903A5204C
:103C10000AD492204E8B62382D0CC1B43484D2E287
:103C20001048CB23202D24C1B19008C64232140B7A
:103C300009412C24C5B09416C2725A044BCA5A5179
:103C40002DE90571028AC3112A4C47B0281EE18272
:103C50007C868BF1213004A8C0082043EFC02536B4
:103C6000C5B6D01A99237B60916B62552ACCB4916A
:103C70003C50E829312A0566680042B9406008AC2A
:103C800031608A8A293D21C8236D264C55B12657BB
:103C9000047B648EACA12D36C521580447E2202850
:103CA00084E3701812C361341008D230188A43615B
:103CB000148D85B13408C7A2581C0364412C10210F
:103CC000B21896882059088B44982C82651254ACFF
:103CD00015D5925E50CC99313466E6C4A097D4A233
:103CE000565625982C8265224816C22211228B61D5
:103CF00089089005B14006C7A2581C4463612C8D09
:103D000082A1381486D1402048C3701812C371387C
:103D1000080AE1481C82457028B685D6C81CD9031C
:103D20008B5C13AB5261A68DE481424F89512930DF
:103D300043030043BE3F5C0C0CB0A6152330540C6B
:103D4000A148310602C5208613A3104C0C2328314C
:103D500016F4723E0284F91010E56340900F0231B0
:103D60003E0A84F83010E1E340800F04F1089C47DC
:103D7000827008CC43413406E5B1201804F260108B
:103D80008BC278340885413C1C44E2101E0F22F19E
:103D90004008851321168D84603013A2B130810351
:103DA000E15018C1817824CCE04040108670202278
:103DB000075338101283311C8849C11C0E048560DA
:103DC0001007A23234880361111CC481B8040FE2C9
:103DD00040A0880381220E048A381028E240A0887F
:103DE0000381220E048A381028E240A08803FF3B9A
:103DF0000044A83E5F09BC04CE0035280752612C60
:103E00004087F0E024BE04B3E8164A636B208FECD1
:103E10006144AE0831A9264265624596E0F25C84B1
:103E20004B73212ECBC5B82417E4725C944B71619F
:103E30002EC3C5B90417A825ADA89475C24ADA885F
:103E40000B791FB0236EC88C793133E446EC801FA8
:103E50002FC48DB41276B252D44A6A4197E0E25C24
:103E6000860B73292ECAE5B82097E4625C960B7125
:103E7000692EC2E5714596A03255844935212257F5
:103E8000C478640FA4B1359445B760125FC2398419
:103E900007A83016A44139480000000004FFFF00C5
:103EA0000000F72DFF3011241FBECFEFD8E0DEBF9A
:103EB000CDBF28E0A2E3B6E001C01D92AB34B2074B
:103EC000E1F716E0A0E0B1E0E0E8FCE602C0059012
:103ED0000D92A233B107D9F71FE1C2E5DFE104C0BB
:103EE0002197FE010E948431C135D107C9F70E9494
:103EF000C72E0C9433360C940000662329F06A30E8
:103F000019F0862F90E008958FEF9FEF0895CF92DC
:103F1000DF92EF92FF920F931F93CF93DF93EC0109
:103F2000842F8770E1E0F0E0082E01C0EE0F0A94C4
:103F3000EAF73E2F7E0199E7E90EF11CD7019C912B
:103F400010E0923018F41E2F913029F150E0487F94
:103F5000E8ADF9ADC880D980D60150969C91949F68
:103F60006001959FD00C11246C0D7D2D711DDF011A
:103F7000A60FB71F011115C08C91812B83278D933C
:103F80002150D1F7DF91CF911F910F91FF90EF90CA
:103F9000DF90CF90089530E0D9CF110F330F222357
:103FA00089F39C91912B93279C938F5F877021506D
:103FB0008111F3CF9CADA90FB11DF7019081923013
:103FC00028F4913009F031E011E0E9CF31E0E7CF9A
:103FD00080E0089580E008959B01DC011896ED9142
:103FE000FC9141E067E10994833081F028F481304D
:103FF00099F08230A9F008958730A9F08830C9F08F
:104000008430B1F4809180008F7D03C08091800066
:104010008F7780938000089584B58F7784BD08954D
:1040200084B58F7DFBCF8091B0008F778093B000F7
:1040300008958091B0008F7DF9CF1F93CF93DF93C8
:10404000282F30E0F901E55FFE4E8491F901E95037
:10405000FF4ED491F901ED51FF4EC491CC23A9F04C
:10406000162F81110E94F41FEC2FF0E0EE0FFF1FBE
:10407000E752FF4EA591B4918FB7F894EC911111CE
:1040800008C0D095DE23DC938FBFDF91CF911F91C5
:104090000895DE2BF8CFCF93DF9390E0FC01E95039
:1040A000FF4E24918D519F4EFC0184918823D1F0C5
:1040B00090E0880F991FFC01E153FF4EA591B49148
:1040C000FC01E752FF4EC591D491623071F49FB765
:1040D000F8943C91822F809583238C93E8812E2B3A
:1040E00028839FBFDF91CF9108958FB7F894EC910B
:1040F0002E2B2C938FBFF6CF3FB7F89480911607E5
:1041000090911707A0911807B091190726B5A89BA1
:1041100005C02F3F19F00196A11DB11D3FBFBA2F59
:10412000A92F982F8827BC01CD01620F711D811D19
:10413000911D42E0660F771F881F991F4A95D1F79E
:1041400008958F929F92AF92BF92CF92DF92EF929B
:10415000FF926B017C010E947C204B015C01C11429
:10416000D104E104F104B9F00E947C2068197909B6
:104170008A099B09683E73408105910580F321E01F
:10418000C21AD108E108F10888EE880E83E0981E73
:10419000A11CB11CE4CFFF90EF90DF90CF90BF90B7
:1041A000AF909F908F9008952091C506260F3327DA
:1041B000331F21323105ECF42091EB06FC0190E035
:1041C00080E0243069F082E00895A091C506219135
:1041D000AC014D55594FA40FB52FB11D2C9301962D
:1041E000861798F38091C506680F6093C50680E036
:1041F000089581E008951092EB0681E08093ED062A
:104200001092EC0661E082E10E941D2061E083E1F2
:104210000E941D20E9EBF0E080818E7F8083808109
:104220008D7F808388E48093B80085E48093BC0010
:104230000895CF93DF9391E09093A2068823B9F07D
:10424000C091B800D091BA008091BC008A7B809365
:10425000BC0060E082E10E941D2060E083E10E94DA
:104260001D200E94FB20D093BA00C093B800DF91BC
:10427000CF910895089508950895E0919A06809148
:104280009906E81730F4F0E0E758F94F808190E0A4
:1042900008958FEF9FEF089590919A068091990667
:1042A0002FEF3FEF981748F4E92FF0E0E758F94F68
:1042B000208130E09F5F90939A06C9010895809114
:1042C000990690919A06891B990B0895CF92DF92D7
:1042D000EF92FF920F931F93CF93DF937C01CB015B
:1042E0008A0120917806222389F0EB016B01C40E2C
:1042F000D51ECC15DD0569F06991D701ED91FC91D2
:104300000190F081E02DC7010995F3CF642F0E9441
:10431000D420C801DF91CF911F910F91FF90EF90B2
:10432000DF90CF900895CF93DF931F92CDB7DEB784
:104330006983209178062223F9F020919B06203290
:1043400058F021E030E0FC013383228390E080E0EC
:104350000F90DF91CF91089580919C06E82FF0E0B7
:10436000E85AF94F998190838F5F80939C068093E0
:104370009B0681E090E0ECCF61E0CE0101960E94C7
:10438000D420F7CFDC011A96ED91FC9130E020E0CB
:104390000994DC011696ED91FC9130E020E040E0BC
:1043A00069E10994DC011696ED91FC9130E020E082
:1043B00040E068E109949A01DC011696ED91FC91C8
:1043C000462F67E10994EF92FF920F931F93CF93CB
:1043D000DF931F92CDB7DEB77C018B01D8016C91C2
:1043E000673129F150F46531A0F40F90DF91CF913E
:1043F0001F910F91FF90EF9008956A3118F16E3F71
:10440000A1F7F8014181498369E2C7010E94C221F5
:104410000BC0F80141814983D7011696ED91FC91BB
:1044200030E020E0C70109950E5F1F4FD7CFF8019C
:1044300081818983AE014F5F5F4F61E0C7010E94B8
:10444000DB21F2CF0F5F1F4FD7011696ED91FC9144
:1044500030E020E040E0C7010995C0CF462FDC01E5
:104460001696ED91FC9130E020E066E10994462F2C
:10447000DC011696ED91FC9130E020E065E10994B5
:10448000EF92FF920F931F93CF93DF93EC01042FD2
:1044900079016D3009F446C050F46B30C9F16930D0
:1044A00009F49FC06A3009F465C080E046C06E30F0
:1044B00009F452C06F3099F70E94D221F70113819D
:1044C000110F110F110F6C89160F60E4CE010E94BD
:1044D0003722612F62956F706061CE010E94372292
:1044E000612F6F70CE010E942E22F7016481606BF4
:1044F000CE010E942E22F701408151816281660F18
:10450000660F660FCE010E94DB210150A1F72EC07D
:1045100069E171E0442311F064E171E0CE010E9491
:10452000E3210AC0411110C06DE071E00E94E32157
:10453000E881F98182898C8B81E0DF91CF911F9195
:104540000F91FF90EF90089566E071E00E94E321E3
:10455000E881F9818389EFCF0E94D22161E8CE0101
:104560000E943722602FCE010E942E22CE010E948F
:10457000C921E2CFEA85FB8530E020E040E068E237
:10458000CE010995EE81FF8130E020E040E064E15A
:10459000CE01099541E06BE4CE010E94C221E88181
:1045A000F981448169E2CE010E94C22140E06BE4BE
:1045B000CE010E94C221E881F981448169E2CE01E5
:1045C0000E94C22141E06BE4CE010E94C221E88139
:1045D000F981458169E2CE010E94C2216EE171E05C
:1045E0009DCF83E591E0998388831C8AA5CFDC0168
:1045F0001896ED91FC9130E020E040E069E10994EB
:10460000DC011896ED91FC9130E020E040E068E19B
:104610000994CF93DF931F92CDB7DEB76983BE01B4
:104620006F5F7F4F0E94EC1F0F90DF91CF91089535
:10463000EF92FF921F93CF93DF93EC01162F7A0135
:104640000E94002360E4CE010E940923E885F985D9
:104650009701412F67E1CE010995CE01DF91CF91FE
:104660001F91FF90EF900C94F722EF92FF921F930F
:10467000CF93DF93EC01142F7901663181F138F487
:10468000643109F44BC0653179F080E022C06831B3
:10469000C9F150F16931C9F780915706882391F12A
:1046A000CE010E94F7222EC080915706882319F070
:1046B000CE010E94F722CE010E94002360E0CE01CD
:1046C0000E940923612FCE010E94092381E080937B
:1046D0005706DF91CF911F91FF90EF900895642FBF
:1046E0000E94092381E0F5CF80915706882319F0B5
:1046F000CE010E94F722A701193138F4612FCE01B3
:104700000E94182310925706EDCF68E1CE010E9457
:104710001823185188E1E80EF11CEDCF8E898F3FE8
:1047200011F488E78E8BE885F9859701412F64E1C4
:10473000CE01DF91CF911F91FF90EF9009940F93DD
:10474000DC01DE963C91DE97431BD496ED91FC9103
:1047500009950F910895CF93DF93FC01A081B1815A
:1047600082AD982F990F990F990F95AF50969C9104
:104770005097903208F09FE1990F990F990F94AFDD
:1047800023AD922F990F990F990F96AF51963C91A7
:104790005197682F620F7727771F3617170614F483
:1047A000832F821B97AFEF01C05CDF4F880F880F0C
:1047B000880F890F8883219680EF888354968D9186
:1047C0009C915597813F910508F48883EE5BFF4FDC
:1047D00056968C918083DF91CF9108950F93FC01C1
:1047E000EB5BFF4F308131965081451730F4301725
:1047F00038F0041728F080E013C03017D0F3FBCF57
:10480000FC01ED5BFF4F30818C5B9F4FFC01808191
:10481000681740F481E0321718F081E0261758F746
:104820000F9108953217C8F3E6CF2F923F924F921F
:104830005F926F927F928F929F92AF92BF92CF9230
:10484000DF92EF92FF920F931F93CF93DF93EC01D0
:104850004C0183E4880E911CF40110823297208071
:104860005E01F4E4AF0EB11CF50120823FAC6E0195
:10487000F5E4CF0ED11CF6013082359740807E01E1
:10488000F6E4EF0EF11CF701408234961081329766
:1048900060803196708032975080012F262D472DF1
:1048A000652DCE010E94EE23CD58DF4F811114C03B
:1048B0001882DF91CF911F910F91FF90EF90DF90C1
:1048C000CF90BF90AF909F908F907F906F905F90B0
:1048D0004F903F902F90089581E08883552011F0EC
:1048E000F4015082621410F4F5016082371410F460
:1048F000F60170821415E8F6F7011083DACF0F93F2
:10490000DC01802FFD01ED58FF4F90819923E9F1E3
:104910002223D9F1223020F0023079F56F5F621B3B
:10492000082F0170FD0180FD32C0EB5BFF4F8081DD
:10493000481758F131968081481738F532979081A1
:1049400031978081260F2617F0F46917D8F42FEFDE
:10495000290F8217D0F4681708F4682F291708F474
:10496000922F961BD696ED91FC91D7970480F581F6
:10497000E02D292FCD01099508C0033089F64F5F3E
:10498000421BCECF682F691720F30F910895ED5B7E
:10499000FF4F80816817C8F3319680816817A8F7A8
:1049A0003296908131978081240F241778F449172B
:1049B00060F42FEF290F821740F7481708F4482FAB
:1049C000291708F4922F941BCDCF482F4917E8F6EA
:1049D000F2CF213039F020F0223031F0840F0895E9
:1049E000860F0895841B0895861B0895213039F0A1
:1049F00020F0223031F0861B0895840F0895860F31
:104A00000895841B08955F926F927F928F929F9278
:104A1000AF92BF92CF92DF92EF92FF920F931F93CC
:104A2000CF93DF935C01162F642EEC01C15BDF4F47
:104A3000DC80ED804C0189E7880E911CFE80FD181A
:104A4000C12EF11608F4CF2C5B800C85202F4E2D43
:104A50006D2D8A810E94E924782E202F4E2D6D2DF8
:104A6000852D0E94F624482F662071F08A85F40176
:104A700080832C2D672DC5010E947F241F1548F0CF
:104A80001F19E394D12CDACF89858111F7CF8B855B
:104A9000EECF1D0D1C83ED82DF91CF911F910F9101
:104AA000FF90EF90DF90CF90BF90AF909F908F904E
:104AB0007F906F905F900895DC0118964C91189745
:104AC000ED91FC911197249130E0042E02C03595B0
:104AD00027950A94E2F7842F860F883068F0319684
:104AE0001196FC93EE93E49198E0941B01C0EE0FB5
:104AF0009A95EAF72E2B885018968C938FEF9FEF9C
:104B000001C0880F6A95EAF7809582230895FC0119
:104B1000E60FF11D849190E0982F88273196E4915B
:104B20008E0F911D0895CF93DF932091F50730915B
:104B3000F6072817390709F490C0EC019093F6079F
:104B40008093F507FC018491809306083196E491E7
:104B5000E0930708FE013296E491E0930808FE0115
:104B60003396E491E0930908FE013496E491E093D2
:104B70000A08FE013596E491E0930B08FE01369693
:104B8000E491E0930C08FE013796E491E0930D0860
:104B9000FE013896E491E0930E08FE013996E49107
:104BA000E0930F08FE013A96E491E0931008FE01AD
:104BB0003B96E491E0931108FE013C96E491E0936A
:104BC0001208FE013D96E491E0931308FE013E9623
:104BD000E491E0931408FE013F96E491E0931508F8
:104BE000FE017096E491E093160861E1CE010E9407
:104BF0008725909318088093170863E1CE010E94DF
:104C0000872590931A088093190865E1CE010E94C8
:104C1000872590931C0880931B088091F50790913D
:104C2000F607892BD1F08091130880931F084091DB
:104C300014084093200890911E08992371F0913038
:104C400079F490911508891714F490931F088091B6
:104C50001608841714F480932008DF91CF910895EB
:104C60003091100820911208082E000C990B622F29
:104C7000022E000C770B630F711D37FD7A95861796
:104C800097071CF4320F30931F08241734F7209332
:104C90002008E3CF6F927F928F929F92AF92BF9244
:104CA000CF92DF92EF92FF920F931F93CF93DF93F8
:104CB000EC01062F142F7901FC01E55AFF4F80818A
:104CC000813009F445C0D0F1823009F44BC0833003
:104CD00009F452C0FE01EF5AFF4F00833196108352
:104CE00037978081918147962FEFE216F10411F0FA
:104CF00008F0E6C0E1E6EE16F10408F447C0FE0154
:104D0000E159FF4F20813181820F931F9C012F5F5A
:104D10003F4FF9014491411142C0712C872DDF9121
:104D2000CF911F910F91FF90EF90DF90CF90BF90A8
:104D3000AF909F908F907F906F900895FE01E35BFE
:104D4000FF4F0190F081E02DCE010995180FC2CFE1
:104D5000FE01E35BFF4F0190F081E02DCE0109954C
:104D6000081BB8CFFE01E35BFF4F0190F081E02DFF
:104D7000CE010995181BAECFFE01E35BFF4F0190FA
:104D8000F081E02DCE010995080FA4CFF1E4EF16D4
:104D9000F10408F4BBCFFE01E359FF4FB3CFFC0190
:104DA00044914E151F0409F086C00296009709F43D
:104DB000B4CF7E01FFE4EF0EF11CF70191838083F5
:104DC000108671966081C7010E945C25F701868379
:104DD00072966081C7010E945C25A82EF701878327
:104DE0006E01F9E7CF0ED11CF6019081F701928791
:104DF00081E0911180E0F7018387FE01EE59FF4FBA
:104E0000B0806B2DC7010E945C25882EFE01ED59F4
:104E1000FF4F1081612FC7010E945C25982EFE0173
:104E2000EC59FF4F0081602FC7010E945C250150A3
:104E300041E050E09A0101C0220F0A95EAF7782E6E
:104E4000721AF701068110160CF068CFBA94CA01E5
:104E500001C0880FBA94EAF7881AB4849A0C1150EA
:104E600001C0440F1A95EAF7F42FF9199F2E2B2D44
:104E70004F2F682DF70182810E94E924182FF70136
:104E800082832B2D492D682D83810E94F624F70102
:104E90008383F1E0BF1609F47CC0BF1608F43FC05D
:104EA00022E0B21609F47BC093E0B91609F482C07F
:104EB000082F212F38C0F9012491820F911D26CF90
:104EC000FE01EF58FF4F00811181080F191F680183
:104ED00060E0C6010E948725080F191F62E0C60125
:104EE0000E948725F4E0CF0ED11C8E159F0580F31C
:104EF000F801849190E0982F88273196E4918E2BC9
:104F0000009709F40ACFE816F90619F4C8010396C8
:104F10004DCFF8013296E4910E0F111DE9CF202FED
:104F2000210F082F0A0D482F612FCE010E94EE237A
:104F3000882309F4F3CEF701148215828E01025AF8
:104F40001F4F4E01FFE58F0E911CF8016081C701D4
:104F50000E945C25682EF4016081C7010E945C25D7
:104F6000B82E40E0662DCE010E94032541E06B2D56
:104F7000CE010E94032561E0C7010E945C258111DA
:104F8000F0CFF70185818A1504F38285F6018083CD
:104F9000C5CEBA1821E0210F080F1B0DC4CF91E038
:104FA000392F301B21E0210F9A1901E0080F890FDA
:104FB000130FB9CF212F2A0D982F901B01E0080F56
:104FC00081E0890FB0CFFF920F931F93CF93DF93B0
:104FD000C82FD62F1092C2078A01F12CF8016191D7
:104FE0008F01E091AC07F091AD078AEA97E009954F
:104FF0008F3F9807F1F08E3F2FEF920779F39C01D6
:105000004D2F6C2F8AEA97E00E944A26909105085E
:10501000913049F030F0923041F0933041F0F80E89
:10502000DDCFC80FFCCFD80FFACFC81BF8CFD81BE5
:10503000F6CF8F2DDF91CF911F910F91FF900895A3
:105040002DE73FE13093AD072093AC070C94E327A5
:10505000CF93DF93EC016BAFEEA9FFA90190F08134
:10506000E02D0995EEA9FFA90280F381E02DCE0184
:10507000DF91CF910994AF92BF92CF92DF92EF92DE
:10508000FF920F931F93CF93DF9300D000D01F9216
:10509000CDB7DEB78C01DC01DA96AC90DA97DB96FF
:1050A000EC90DB97ED91FC91B188FE2CD12CC12CBA
:1050B000D801ED91FC9111978089D8962D913C9162
:1050C0001C82FD828B83B8E08B9FC00111248C9DD4
:1050D000A0018D9D500D9C9D500D1124240F351F56
:1050E0003A832983D8011496ED91FC919E012F5F9C
:1050F0003F4F41E06FE0C8010995F3948F2D8E1961
:105100008A1528F4BFEFCB1ADB0AFB1488F20F9044
:105110000F900F900F900F90DF91CF911F910F91F3
:10512000FF90EF90DF90CF90BF90AF900895CF9217
:10513000DF92EF92FF920F931F93CF93DF93EC01D7
:10514000962F683109F44BC0B901993130F494318C
:10515000C9F0973189F080E006C0993109F461C047
:105160009032C9F781E0DF91CF911F910F91FF90AD
:10517000EF90DF90CF90089550E08AE197E00E9491
:105180006621F0CF8C859D85AE85BF85892B8A2BC6
:105190008B2B71F4E881F981A585B0E020EA36E82F
:1051A00041E050E00E9411316C877D878E879F8798
:1051B00010929A061092990610929C0610929B06E5
:1051C0000E94FB208AE391E29093C4068093C30679
:1051D0008BE391E29093C8068093C706C3CF2C85DA
:1051E0003D854E855F8560E074E284EF90E00E942B
:1051F000623120513109410951095695479537953A
:1052000027952093B8008E8990E09595879591E039
:10521000909378068093560610929C0610929B06F7
:10522000A1CFD0919B06D13208F093C0C091560611
:105230000E947C206B017C018091EB06811164C08F
:1052400082E08093EB0681E08093ED068FEF809300
:10525000EA0610920F07D0930E07A8E5B6E0EEEE2F
:10526000F6E080E0D8137CC0109210078091100700
:10527000CC0FC82BC09310078091EC06813009F049
:1052800073C01092EC060E947C206B017C0180911F
:1052900010078093BB0080919E0690919F06A0917D
:1052A000A006B091A106892B8A2B8B2B99F00E9426
:1052B0007C2000919E0610919F062091A0063091BF
:1052C000A1066C197D098E099F0906171707280783
:1052D0003907D8F18091BC0083FDD9CF85EC80934C
:1052E000BC000E947C206B017C018091EB06823027
:1052F000E9F18091EA068F3F61F18091EA06803200
:1053000041F18091EA0625C080919E0690919F060A
:10531000A091A006B091A106892B8A2B8B2B09F4B2
:105320008BCF0E947C2000919E0610919F062091B9
:10533000A0063091A1066C197D098E099F090617F8
:1053400017072807390708F077CF80919D060E943C
:10535000192110929C0610929B061092780602CF9B
:105360009D9191938F5F7ECF85EEB9CF80919E0600
:1053700090919F06A091A006B091A106892B8A2B3F
:105380008B2B09F4B2CF0E947C2000919E061091D5
:105390009F062091A0063091A1066C197D098E0907
:1053A0009F09061717072807390708F09ECFCDCFAA
:1053B0000F931F93CF93DF93EC01862F642F8C32D2
:1053C00008F03AC08A3208F060C0883209F44BC055
:1053D000893209F460C0803408F475C0982F9F7337
:1053E000FE01E90FF11D868D8F3F09F44EC090310B
:1053F00008F436C0282F30E0F901E55FFE4E8491B5
:10540000F901E950FF4E0491F901ED51FF4E14915D
:10541000112379F081110E94F41FE12FF0E0EE0FCB
:10542000FF1FEB53FF4EA591B491EC910E2381E049
:1054300009F480E0898F29C08D3299F108F4CBCF2F
:1054400094EB980F923008F0C6CF8F73C80FD11D20
:105450008E8D411134C061E00E944B2060E08E8D42
:105460000E941D2012C08E01025E1F4FD0E0F80185
:1054700081918F018F3F31F061E0D03108F062E01F
:105480000E944B20DF5FD63191F781E0DF91CF9111
:105490001F910F91089570E090E080E00E94A1209C
:1054A000F4CF85E090E0433010F082E090E0880F88
:1054B000991F880F991F05970197F1F7E6CF62E0D2
:1054C0000E944B20E2CF80E0E1CFCF92DF92EF92BB
:1054D000FF920F931F93CF93DF936C01EB017B013E
:1054E000E40EF51E10E000E0CE15DF0561F06991D5
:1054F000D601ED91FC910190F081E02DC601099556
:10550000080F191FF1CFC801DF91CF911F910F91A3
:10551000FF90EF90DF90CF900895CF92DF92EF92BF
:10552000FF920F931F93CF93DF93EC016C0124E064
:10553000C20ED11CFC01E158FF4F0190F081E02D1B
:10554000C60109958E3FEFEF9E07C8F48E010E57F6
:105550001F4F7E01F1E8EF0EF11C9C01F801408124
:10556000F7016081C6010E944A26C15ADF4F988127
:105570009130A9F078F09230A1F09330B9F081E049
:1055800090E0DF91CF911F910F91FF90EF90DF900E
:10559000CF900895F7019081890F8083F0CFF801B3
:1055A000FACFF7019081981B892FF7CFF801FACF36
:1055B000089590E080E0089585ED8093BC0080918F
:1055C0009E0690919F06A091A006B091A106079615
:1055D000A11DB11D23E0B695A795979587952A95AE
:1055E000D1F72091BC0024FD03C01092EB06089572
:1055F00040919E0650919F066091A0067091A10671
:10560000452B462B472B69F30097A105B10541F0C7
:1056100025E32A95F1F700000197A109B109E1CF2F
:1056200080919D060C941921FC01A081B1815096B6
:105630002C9182AD38E0839FC0011124289FA001E6
:10564000299F500D112470E060E080AD91AD0C9465
:1056500075331F93CF93DF93EC010E943B281BAD62
:105660008AAD180FE881F9818189181768F0EC81FB
:10567000FD8130E020E040E060E1CE01099580E06E
:10568000DF91CF911F910895FE01E658FF4F808171
:10569000882319F0CE010E94142B612FCE010E94A5
:1056A000282881E0EDCFCF93DF93EC01FC01E65891
:1056B000FF4F8081882319F0CE010E94142B60E0F7
:1056C000CE01DF91CF910C9428282F923F924F92D8
:1056D0005F926F927F928F929F92AF92BF92CF9282
:1056E000DF92EF92FF920F931F93CF93DF93CDB78B
:1056F000DEB7A8970FB6F894DEBF0FBECDBF282E39
:105700005B012A018AEA97E00E94532B2294220C23
:1057100020EE2222CE0101964C013E0195E1690E58
:10572000711CEFEFAE16B10449F585E599E00E94D2
:1057300093254FE855E060E4822D0E9420288AEAF4
:1057400097E00E94292B8111ECCFA8960FB6F89410
:10575000DEBF0FBECDBFDF91CF911F910F91FF90A4
:10576000EF90DF90CF90BF90AF909F908F907F9001
:105770006F905F904F903F902F900895A114B104C7
:10578000F9F489E997E20E9493254FE855E060E437
:1057900080E40E9420288DE392E30E94932541E952
:1057A00055E060E180E00E94202848E955E066E28B
:1057B00080E00E9420284BE955E06CE380E0BDCFFB
:1057C0008EE697E00E94932549EF55E060E180E77F
:1057D0000E9420288AE791E20E94932541EA55E041
:1057E00060E180E00E94202889E2C82E88E0D82E5F
:1057F0009CE1392EF12CE12CF60104811581011573
:10580000110591F519828CEE92E00E949325FFEF2D
:10581000EF1AFF0A9F928F92FF92EF928AEA95E029
:105820009F938F937F926F920E949233A301632D77
:1058300084E10E942028F6E0CF0ED11C2CE0320E2D
:105840000FB6F894DEBF0FBECDBFEA14FB04A1F67D
:105850004114510409F473CF88E690E00E94932527
:1058600041EB55E06FE1AACF0331110510F003E1E0
:1058700010E0F60160817181A801C4010E948333A8
:10588000F401E00FF11F1082BECF1F920F920FB6EE
:105890000F9211242F933F938F939F93AF93BF93B6
:1058A0008091120790911307A0911407B0911507EA
:1058B0003091110723E0230F2D3758F50196A11DD4
:1058C000B11D209311078093120790931307A093A3
:1058D0001407B09315078091160790911707A091B0
:1058E0001807B09119070196A11DB11D80931607E5
:1058F00090931707A0931807B0931907BF91AF9122
:105900009F918F913F912F910F900FBE0F901F90FD
:10591000189526E8230F0296A11DB11DD2CF1F9224
:105920000F920FB60F9211242F933F934F935F93D3
:105930006F937F938F939F93AF93BF93EF93FF9357
:105940008091B900887F803609F44AC0F0F588322A
:1059500009F4A7C018F5803109F49BC0B8F4882376
:1059600009F4F9C0883009F494C0FF91EF91BF9118
:10597000AF919F918F917F916F915F914F913F91E7
:105980002F910F900FBE0F901F901895883109F43A
:1059900088C0803251F78093EA0614C0803409F43D
:1059A0009DC040F48033B9F38833F9F68093EA065A
:1059B00085ECB0C0803509F485C0883509F496C0FF
:1059C000883499F60E94DC2AD0CF883909F48CC03B
:1059D00038F5883729F050F4883611F0803729F6E9
:1059E00083E08093EB061092E90657C0883809F4EB
:1059F0007BC0803919F0803809F0B7CF8091E90673
:105A0000803208F071C0E091E90681E08E0F80934A
:105A1000E9068091BB00F0E0E753F94F80833DC079
:105A2000803B39F0E0F4803A09F479C0883A09F013
:105A30009CCF84E08093EB061092C6061092C506B8
:105A4000E091C306F091C40609958091C5068111C5
:105A50000FC081E08093C5061092A30609C0803C68
:105A600009F4A6CF883C09F4A3CF883B09F07DCF89
:105A7000E091C60681E08E0F8093C606F0E0ED55FA
:105A8000F94F80818093BB009091C6068091C50636
:105A900029C0809110078093BB0085EC8093BC00E7
:105AA00064CF90910F0780910E07981758F5E091F9
:105AB0000F0781E08E0F80930F07F0E0E251F94F5E
:105AC0008081E9CFE0910F0781E08E0F80930F076F
:105AD0008091BB00F0E0E251F94F808390910F0775
